:100000000C9434000C943E000C943E000C943E0082
:100010000C943E000C943E000C943E000C943E0068
:100020000C943E000C943E000C943E000C943E0058
:100030000C943E000C943E000C943E000C943E0048
:100040000C943E000C943E000C943E000C943E0038
:100050000C943E000C943E000C943E000C943E0028
:100060000C943E000C943E0011241FBECFEFD8E04C
:10007000DEBFCDBF0E9440000C9457000C940000DE
:1000800081E087B988B92FE734E89EE121503040FC
:100090009040E1F700C0000018B82FE734E89EE177
:1000A000215030409040E1F700C00000EBCFF894C1
:0200B000FFCF80
:00000001FF
